{
  "_format": "hh-sol-artifact-1",
  "contractName": "MessageBoard",
  "sourceName": "contracts/MessageBoard.sol",
  "abi": [
    {
      "inputs": [],
      "stateMutability": "nonpayable",
      "type": "constructor"
    },
    {
      "inputs": [
        {
          "internalType": "uint256",
          "name": "_messageId",
          "type": "uint256"
        },
        {
          "internalType": "uint256",
          "name": "_clap",
          "type": "uint256"
        }
      ],
      "name": "clap",
      "outputs": [],
      "stateMutability": "nonpayable",
      "type": "function"
    },
    {
      "inputs": [
        {
          "internalType": "string",
          "name": "_text",
          "type": "string"
        }
      ],
      "name": "create",
      "outputs": [
        {
          "internalType": "uint256",
          "name": "",
          "type": "uint256"
        }
      ],
      "stateMutability": "nonpayable",
      "type": "function"
    },
    {
      "inputs": [],
      "name": "get",
      "outputs": [
        {
          "components": [
            {
              "internalType": "uint256",
              "name": "timestamp",
              "type": "uint256"
            },
            {
              "internalType": "address",
              "name": "creator",
              "type": "address"
            },
            {
              "internalType": "string",
              "name": "text",
              "type": "string"
            },
            {
              "internalType": "bool",
              "name": "isSpam",
              "type": "bool"
            },
            {
              "internalType": "uint256",
              "name": "claps",
              "type": "uint256"
            },
            {
              "internalType": "uint256",
              "name": "messageId",
              "type": "uint256"
            }
          ],
          "internalType": "struct MessageBoard.Message[]",
          "name": "",
          "type": "tuple[]"
        }
      ],
      "stateMutability": "view",
      "type": "function"
    },
    {
      "inputs": [
        {
          "internalType": "uint256",
          "name": "_messageId",
          "type": "uint256"
        }
      ],
      "name": "markAsSpam",
      "outputs": [
        {
          "internalType": "uint256",
          "name": "",
          "type": "uint256"
        }
      ],
      "stateMutability": "nonpayable",
      "type": "function"
    },
    {
      "inputs": [],
      "name": "owner",
      "outputs": [
        {
          "internalType": "address",
          "name": "",
          "type": "address"
        }
      ],
      "stateMutability": "view",
      "type": "function"
    },
    {
      "inputs": [
        {
          "internalType": "uint256",
          "name": "_messageId",
          "type": "uint256"
        }
      ],
      "name": "unMarkAsSpam",
      "outputs": [
        {
          "internalType": "uint256",
          "name": "",
          "type": "uint256"
        }
      ],
      "stateMutability": "nonpayable",
      "type": "function"
    }
  ],
  "bytecode": "0x608060405234801561001057600080fd5b5033600260006101000a81548173ffffffffffffffffffffffffffffffffffffffff021916908373ffffffffffffffffffffffffffffffffffffffff1602179055506118d8806100616000396000f3fe608060405234801561001057600080fd5b50600436106100625760003560e01c80633e924436146100675780636d4ce63c146100975780638da5cb5b146100b5578063afd48fcb146100d3578063b6a46b3b146100ef578063db02c03c1461011f575b600080fd5b610081600480360381019061007c9190610d7e565b61014f565b60405161008e9190610dba565b60405180910390f35b61009f61045c565b6040516100ac919061101b565b60405180910390f35b6100bd6105dc565b6040516100ca919061104c565b60405180910390f35b6100ed60048036038101906100e89190611067565b610602565b005b610109600480360381019061010491906111dc565b6108ef565b6040516101169190610dba565b60405180910390f35b61013960048036038101906101349190610d7e565b610a27565b6040516101469190610dba565b60405180910390f35b6000806000838154811061016657610165611225565b5b90600052602060002090600602016040518060c0016040529081600082015481526020016001820160009054906101000a900473ffffffffffffffffffffffffffffffffffffffff1673ffffffffffffffffffffffffffffffffffffffff1673ffffffffffffffffffffffffffffffffffffffff1681526020016002820180546101ef90611283565b80601f016020809104026020016040519081016040528092919081815260200182805461021b90611283565b80156102685780601f1061023d57610100808354040283529160200191610268565b820191906000526020600020905b81548152906001019060200180831161024b57829003601f168201915b505050505081526020016003820160009054906101000a900460ff16151515158152602001600482015481526020016005820154815250509050600260009054906101000a900473ffffffffffffffffffffffffffffffffffffffff1673ffffffffffffffffffffffffffffffffffffffff163373ffffffffffffffffffffffffffffffffffffffff1614610332576040517f08c379a000000000000000000000000000000000000000000000000000000000815260040161032990611337565b60405180910390fd5b60001515816060015115151461037d576040517f08c379a0000000000000000000000000000000000000000000000000000000008152600401610374906113c9565b60405180910390fd5b600181606001901515908115158152505080600084815481106103a3576103a2611225565b5b90600052602060002090600602016000820151816000015560208201518160010160006101000a81548173ffffffffffffffffffffffffffffffffffffffff021916908373ffffffffffffffffffffffffffffffffffffffff16021790555060408201518160020190816104179190611595565b5060608201518160030160006101000a81548160ff0219169083151502179055506080820151816004015560a082015181600501559050508060a00151915050919050565b60606000805480602002602001604051908101604052809291908181526020016000905b828210156105d357838290600052602060002090600602016040518060c0016040529081600082015481526020016001820160009054906101000a900473ffffffffffffffffffffffffffffffffffffffff1673ffffffffffffffffffffffffffffffffffffffff1673ffffffffffffffffffffffffffffffffffffffff16815260200160028201805461051390611283565b80601f016020809104026020016040519081016040528092919081815260200182805461053f90611283565b801561058c5780601f106105615761010080835404028352916020019161058c565b820191906000526020600020905b81548152906001019060200180831161056f57829003601f168201915b505050505081526020016003820160009054906101000a900460ff161515151581526020016004820154815260200160058201548152505081526020019060010190610480565b50505050905090565b600260009054906101000a900473ffffffffffffffffffffffffffffffffffffffff1681565b600080838154811061061757610616611225565b5b90600052602060002090600602016040518060c0016040529081600082015481526020016001820160009054906101000a900473ffffffffffffffffffffffffffffffffffffffff1673ffffffffffffffffffffffffffffffffffffffff1673ffffffffffffffffffffffffffffffffffffffff1681526020016002820180546106a090611283565b80601f01602080910402602001604051908101604052809291908181526020018280546106cc90611283565b80156107195780601f106106ee57610100808354040283529160200191610719565b820191906000526020600020905b8154815290600101906020018083116106fc57829003601f168201915b505050505081526020016003820160009054906101000a900460ff161515151581526020016004820154815260200160058201548152505090503373ffffffffffffffffffffffffffffffffffffffff16816020015173ffffffffffffffffffffffffffffffffffffffff16036107c5576040517f08c379a00000000000000000000000000000000000000000000000000000000081526004016107bc906116b3565b60405180910390fd5b600015158160600151151514610810576040517f08c379a000000000000000000000000000000000000000000000000000000000815260040161080790611745565b60405180910390fd5b81816080018181516108229190611794565b91508181525050806000848154811061083e5761083d611225565b5b90600052602060002090600602016000820151816000015560208201518160010160006101000a81548173ffffffffffffffffffffffffffffffffffffffff021916908373ffffffffffffffffffffffffffffffffffffffff16021790555060408201518160020190816108b29190611595565b5060608201518160030160006101000a81548160ff0219169083151502179055506080820151816004015560a08201518160050155905050505050565b6000806040518060c001604052804281526020013373ffffffffffffffffffffffffffffffffffffffff1681526020018481526020016000151581526020016000815260200160016000815480929190610948906117c8565b91905055815250905060008190806001815401808255809150506001900390600052602060002090600602016000909190919091506000820151816000015560208201518160010160006101000a81548173ffffffffffffffffffffffffffffffffffffffff021916908373ffffffffffffffffffffffffffffffffffffffff16021790555060408201518160020190816109e39190611595565b5060608201518160030160006101000a81548160ff0219169083151502179055506080820151816004015560a0820151816005015550508060a00151915050919050565b60008060008381548110610a3e57610a3d611225565b5b90600052602060002090600602016040518060c0016040529081600082015481526020016001820160009054906101000a900473ffffffffffffffffffffffffffffffffffffffff1673ffffffffffffffffffffffffffffffffffffffff1673ffffffffffffffffffffffffffffffffffffffff168152602001600282018054610ac790611283565b80601f0160208091040260200160405190810160405280929190818152602001828054610af390611283565b8015610b405780601f10610b1557610100808354040283529160200191610b40565b820191906000526020600020905b815481529060010190602001808311610b2357829003601f168201915b505050505081526020016003820160009054906101000a900460ff16151515158152602001600482015481526020016005820154815250509050600260009054906101000a900473ffffffffffffffffffffffffffffffffffffffff1673ffffffffffffffffffffffffffffffffffffffff163373ffffffffffffffffffffffffffffffffffffffff1614610c0a576040517f08c379a0000000000000000000000000000000000000000000000000000000008152600401610c0190611337565b60405180910390fd5b600115158160600151151514610c55576040517f08c379a0000000000000000000000000000000000000000000000000000000008152600401610c4c90611882565b60405180910390fd5b60008160600190151590811515815250508060008481548110610c7b57610c7a611225565b5b90600052602060002090600602016000820151816000015560208201518160010160006101000a81548173ffffffffffffffffffffffffffffffffffffffff021916908373ffffffffffffffffffffffffffffffffffffffff1602179055506040820151816002019081610cef9190611595565b5060608201518160030160006101000a81548160ff0219169083151502179055506080820151816004015560a082015181600501559050508060a00151915050919050565b6000604051905090565b600080fd5b600080fd5b6000819050919050565b610d5b81610d48565b8114610d6657600080fd5b50565b600081359050610d7881610d52565b92915050565b600060208284031215610d9457610d93610d3e565b5b6000610da284828501610d69565b91505092915050565b610db481610d48565b82525050565b6000602082019050610dcf6000830184610dab565b92915050565b600081519050919050565b600082825260208201905092915050565b6000819050602082019050919050565b610e0a81610d48565b82525050565b600073ffffffffffffffffffffffffffffffffffffffff82169050919050565b6000610e3b82610e10565b9050919050565b610e4b81610e30565b82525050565b600081519050919050565b600082825260208201905092915050565b60005b83811015610e8b578082015181840152602081019050610e70565b60008484015250505050565b6000601f19601f8301169050919050565b6000610eb382610e51565b610ebd8185610e5c565b9350610ecd818560208601610e6d565b610ed681610e97565b840191505092915050565b60008115159050919050565b610ef681610ee1565b82525050565b600060c083016000830151610f146000860182610e01565b506020830151610f276020860182610e42565b5060408301518482036040860152610f3f8282610ea8565b9150506060830151610f546060860182610eed565b506080830151610f676080860182610e01565b5060a0830151610f7a60a0860182610e01565b508091505092915050565b6000610f918383610efc565b905092915050565b6000602082019050919050565b6000610fb182610dd5565b610fbb8185610de0565b935083602082028501610fcd85610df1565b8060005b858110156110095784840389528151610fea8582610f85565b9450610ff583610f99565b925060208a01995050600181019050610fd1565b50829750879550505050505092915050565b600060208201905081810360008301526110358184610fa6565b905092915050565b61104681610e30565b82525050565b6000602082019050611061600083018461103d565b92915050565b6000806040838503121561107e5761107d610d3e565b5b600061108c85828601610d69565b925050602061109d85828601610d69565b9150509250929050565b600080fd5b600080fd5b7f4e487b7100000000000000000000000000000000000000000000000000000000600052604160045260246000fd5b6110e982610e97565b810181811067ffffffffffffffff82111715611108576111076110b1565b5b80604052505050565b600061111b610d34565b905061112782826110e0565b919050565b600067ffffffffffffffff821115611147576111466110b1565b5b61115082610e97565b9050602081019050919050565b82818337600083830152505050565b600061117f61117a8461112c565b611111565b90508281526020810184848401111561119b5761119a6110ac565b5b6111a684828561115d565b509392505050565b600082601f8301126111c3576111c26110a7565b5b81356111d384826020860161116c565b91505092915050565b6000602082840312156111f2576111f1610d3e565b5b600082013567ffffffffffffffff8111156112105761120f610d43565b5b61121c848285016111ae565b91505092915050565b7f4e487b7100000000000000000000000000000000000000000000000000000000600052603260045260246000fd5b7f4e487b7100000000000000000000000000000000000000000000000000000000600052602260045260246000fd5b6000600282049050600182168061129b57607f821691505b6020821081036112ae576112ad611254565b5b50919050565b600082825260208201905092915050565b7f796f7520646f206e6f7420686176652073756666696369656e7420707269766960008201527f6c6c6167657320746f206d616b6520746869732063616c6c0000000000000000602082015250565b60006113216038836112b4565b915061132c826112c5565b604082019050919050565b6000602082019050818103600083015261135081611314565b9050919050565b7f6d65737361676520697320616c7265616479206d61726b65642061732073706160008201527f6d00000000000000000000000000000000000000000000000000000000000000602082015250565b60006113b36021836112b4565b91506113be82611357565b604082019050919050565b600060208201905081810360008301526113e2816113a6565b9050919050565b60008190508160005260206000209050919050565b60006020601f8301049050919050565b600082821b905092915050565b60006008830261144b7fffffffffffffffffffffffffffffffffffffffffffffffffffffffffffffffff8261140e565b611455868361140e565b95508019841693508086168417925050509392505050565b6000819050919050565b600061149261148d61148884610d48565b61146d565b610d48565b9050919050565b6000819050919050565b6114ac83611477565b6114c06114b882611499565b84845461141b565b825550505050565b600090565b6114d56114c8565b6114e08184846114a3565b505050565b5b81811015611504576114f96000826114cd565b6001810190506114e6565b5050565b601f8211156115495761151a816113e9565b611523846113fe565b81016020851015611532578190505b61154661153e856113fe565b8301826114e5565b50505b505050565b600082821c905092915050565b600061156c6000198460080261154e565b1980831691505092915050565b6000611585838361155b565b9150826002028217905092915050565b61159e82610e51565b67ffffffffffffffff8111156115b7576115b66110b1565b5b6115c18254611283565b6115cc828285611508565b600060209050601f8311600181146115ff57600084156115ed578287015190505b6115f78582611579565b86555061165f565b601f19841661160d866113e9565b60005b8281101561163557848901518255600182019150602085019450602081019050611610565b86831015611652578489015161164e601f89168261155b565b8355505b6001600288020188555050505b505050505050565b7f63616e6e6f7420636c617020666f7220796f7572206f776e206d657373616765600082015250565b600061169d6020836112b4565b91506116a882611667565b602082019050919050565b600060208201905081810360008301526116cc81611690565b9050919050565b7f63616e6e6f7420636c617020666f722061206d657373616765206d61726b656460008201527f206173207370616d000000000000000000000000000000000000000000000000602082015250565b600061172f6028836112b4565b915061173a826116d3565b604082019050919050565b6000602082019050818103600083015261175e81611722565b9050919050565b7f4e487b7100000000000000000000000000000000000000000000000000000000600052601160045260246000fd5b600061179f82610d48565b91506117aa83610d48565b92508282019050808211156117c2576117c1611765565b5b92915050565b60006117d382610d48565b91507fffffffffffffffffffffffffffffffffffffffffffffffffffffffffffffffff820361180557611804611765565b5b600182019050919050565b7f6d65737361676520697320616c7265616479206d61726b6564206173206e6f6e60008201527f2d7370616d000000000000000000000000000000000000000000000000000000602082015250565b600061186c6025836112b4565b915061187782611810565b604082019050919050565b6000602082019050818103600083015261189b8161185f565b905091905056fea2646970667358221220d0e8df0c3f7eae588a541dc35b67f1b0fac9c614bc098410932aa94ed0b1217564736f6c63430008180033",
  "linkReferences": {},
  "deployedLinkReferences": {}
}